:020000040800F2
:100000000000022055120008551400085914000879
:100010005D14000861140008651400080000000069
:10002000000000000000000000000000691400084B
:100030006D14000800000000711400087514000819
:10004000A5120008A5120008A5120008A5120008B4
:10005000A5120008A5120008A5120008A5120008A4
:10006000A5120008A5120008A5120008A512000894
:10007000A5120008A5120008A5120008A512000884
:10008000A5120008A5120008A51200080000000033
:10009000000000000000000000000000A5120008A1
:1000A000A5120008A5120008A5120008A512000854
:1000B000A5120008A5120008A5120008A512000844
:1000C000A5120008A5120008A5120008A512000834
:1000D000A5120008A5120008A512000800000000E3
:1000E000A5120008A5120008A512000800000000D3
:1000F000000000000000000000000000A512000841
:1001000000000000A5120008A5120008A5120008B2
:1001100000000000000000000000000000000000DF
:10012000A5120008A5120008A5120008A5120008D3
:10013000A512000800000000000000000000000000
:10014000000000000000000000000000A5120008F0
:10015000A5120008A5120008A5120008A5120008A3
:10016000A5120008A5120008000000000000000011
:10017000000000000000000000000000000000007F
:1001800000000000A51200080000000000000000B0
:08019000A5120008A5120008E9
:1001A00010B5054C237833B9044B13B10448AFF3B1
:1001B00000800123237010BDA00200200000000079
:1001C000B076000808B5034B1BB103490348AFF3F1
:1001D000008008BD00000000A4020020B0760008E6
:1001E000A3F5803A704700BF174B002B08BF134B95
:1001F0009D46FFF7F5FF00218B460F461348144A32
:10020000121A04F02BF80E4B002B00D098470D4B20
:10021000002B00D098470020002104000D000D485D
:10022000002802D00C48AFF3008003F0F3FF200059
:10023000290001F0C9F803F0D9FF00BF0000080051
:10024000000000000000000000000000A0020020EC
:10025000000300200000000000000000947B000864
:1002600000000020A0020020A002002000030020C7
:10027000034613F8012B002AFBD1181A01387047E6
:1002800001F0FF01102A2BDB10F0070F08D010F847
:10029000013B013A8B422DD010F0070F42B3F6D14B
:1002A000F0B441EA012141EA014122F007047FF064
:1002B00000070023F0E80256083C85EA010586EABB
:1002C000010685FA47F5A3FA87F586FA47F6A5FAF7
:1002D00087F68EB9EED1F0BC01F0FF0102F0070203
:1002E00032B110F8013B013A83EA010313B1F8D1AE
:1002F0000020704701387047002D06BF354603388F
:10030000073815F0010F07D1013015F4807F02BFC7
:10031000013015F4C03F0130F0BC0138704700BF18
:1003200010F8012B11F8013B012A28BF9A42F7D09F
:10033000D01A704770B54FF0FF0C4CF4E06C1CEA1B
:1003400011541DBF1CEA135594EA0C0F95EA0C0FCB
:1003500000F0DEF82C4481EA030621EA4C5123EA3E
:100360004C5350EA013518BF52EA033541F480116D
:1003700043F4801338D0A0FB02CE4FF00005E1FB20
:1003800002E506F00042E0FB03E54FF00006E1FB6A
:1003900003569CF0000F18BF4EF0010EA4F1FF04AD
:1003A000B6F5007F64F5407404D25FEA4E0E6D41ED
:1003B00046EB060642EAC62141EA55514FEAC520FE
:1003C00040EA5E504FEACE2EB4F1FD0C88BFBCF57A
:1003D000E06F1ED8BEF1004F08BF5FEA500E50F12B
:1003E000000041EB045170BD06F0004646EA0101F1
:1003F00040EA020081EA0301B4EB5C04C2BFD4EB23
:100400000C0541EA045170BD41F480114FF0000E1B
:10041000013C00F3AB8014F1360FDEBF002001F089
:10042000004170BDC4F10004203C35DA0C341BDC03
:1004300004F11404C4F1200500FA05F320FA04F0D5
:1004400001FA05F240EA020001F0004221F0004109
:1004500010EBD37021FA04F642EB06015EEA430E7C
:1004600008BF20EAD37070BDC4F10C04C4F12005AC
:1004700000FA04F320FA05F001FA04F240EA02005F
:1004800001F0004110EBD37041F100015EEA430E30
:1004900008BF20EAD37070BDC4F1200500FA05F250
:1004A0004EEA020E20FA04F301FA05F243EA0203CF
:1004B00021FA04F001F0004121FA04F220EA0200DE
:1004C00000EBD3705EEA430E08BF20EAD37070BD24
:1004D00094F0000F0FD101F00046400041EB010104
:1004E00011F4801F08BF013CF7D041EA060195F0E6
:1004F000000F18BF704703F00046520043EB0303A0
:1005000013F4801F08BF013DF7D043EA060370478C
:1005100094EA0C0F0CEA135518BF95EA0C0F0CD097
:1005200050EA410618BF52EA4306D1D181EA0301DD
:1005300001F000414FF0000070BD50EA410606BFD7
:100540001046194652EA430619D094EA0C0F02D11C
:1005500050EA013613D195EA0C0F05D152EA033661
:100560001CBF104619460AD181EA030101F000417F
:1005700041F0FE4141F470014FF0000070BD41F0C8
:10058000FE4141F4780170BD81F0004102E000BFFE
:1005900083F0004330B54FEA41044FEA430594EA43
:1005A000050F08BF90EA020F1FBF54EA000C55EA7E
:1005B000020C7FEA645C7FEA655C00F0E2804FEA4F
:1005C0005454D4EB5555B8BF6D420CDD2C4480EA31
:1005D000020281EA030382EA000083EA010180EA61
:1005E000020281EA0303362D88BF30BD11F0004FAF
:1005F0004FEA01314FF4801C4CEA113102D04042E5
:1006000061EB410113F0004F4FEA03334CEA13331F
:1006100002D0524263EB430394EA050F00F0A78037
:10062000A4F10104D5F1200E0DDB02FA0EFC22FA32
:1006300005F2801841F1000103FA0EF2801843FA26
:1006400005F359410EE0A5F120050EF1200E012A17
:1006500003FA0EFC28BF4CF0020C43FA05F3C01855
:1006600051EBE37101F0004507D54FF0000EDCF1CE
:10067000000C7EEB00006EEB0101B1F5801F1BD377
:10068000B1F5001F0CD349085FEA30004FEA3C0C7B
:1006900004F101044FEA445212F5800F80F09A8071
:1006A000BCF1004F08BF5FEA500C50F1000041EB75
:1006B000045141EA050130BD5FEA4C0C404141EB79
:1006C0000101013C28BFB1F5801FE9D291F0000F74
:1006D00004BF01460020B1FA81F308BF2033A3F123
:1006E0000B03B3F120020CDA0C3208DD02F1140C1A
:1006F000C2F10C0201FA0CF021FA02F10CE002F155
:100700001402D8BFC2F1200C01FA02F120FA0CFC4D
:10071000DCBF41EA0C019040E41AA2BF01EB045196
:10072000294330BD6FEA04041F3C1CDA0C340EDC94
:1007300004F11404C4F1200220FA04F001FA02F3D7
:1007400040EA030021FA04F345EA030130BDC4F195
:100750000C04C4F1200220FA02F001FA04F340EA8A
:100760000300294630BD21FA04F0294630BD94F03B
:10077000000F83F4801306BF81F480110134013D22
:100780004EE77FEA645C18BF7FEA655C29D094EA93
:10079000050F08BF90EA020F05D054EA000C04BF11
:1007A0001946104630BD91EA030F1EBF00210020FC
:1007B00030BD5FEA545C05D14000494128BF41F09B
:1007C000004130BD14F580043CBF01F5801130BDFF
:1007D00001F0004545F0FE4141F470014FF000008A
:1007E00030BD7FEA645C1ABF194610467FEA655C3B
:1007F0001CBF0B46024650EA013406BF52EA0335DD
:1008000091EA030F41F4002130BD00BF90F0000FCA
:1008100004BF0021704730B54FF4806404F1320406
:100820004FF000054FF0000150E700BF90F0000FBF
:1008300004BF0021704730B54FF4806404F13204E6
:1008400010F0004548BF40424FF000013EE700BFB6
:1008500042004FEAE2014FEA31014FEA02701FBF46
:1008600012F07F4393F07F4F81F06051704732F078
:100870007F4208BF704793F07F4F04BF41F40021CF
:10088000704730B54FF4607401F0004521F000412D
:100890001CE700BF50EA010208BF704730B54FF0B7
:1008A00000050AE050EA010208BF704730B511F0B8
:1008B000004502D5404261EB41014FF4806404F1F0
:1008C00032045FEA915C3FF4D8AE4FF003025FEA76
:1008D000DC0C18BF03325FEADC0C18BF033202EBFA
:1008E000DC02C2F1200300FA03FC20FA02F001FA54
:1008F00003FE40EA0E0021FA02F11444BDE600BFF7
:1009000070B54FF0FF0C4CF4E06C1CEA11541DBFA5
:100910001CEA135594EA0C0F95EA0C0F00F0DEF870
:100920002C4481EA030621EA4C5123EA4C5350EA55
:10093000013518BF52EA033541F4801143F48013A6
:1009400038D0A0FB02CE4FF00005E1FB02E506F037
:100950000042E0FB03E54FF00006E1FB03569CF08C
:10096000000F18BF4EF0010EA4F1FF04B6F5007F92
:1009700064F5407404D25FEA4E0E6D4146EB060604
:1009800042EAC62141EA55514FEAC52040EA5E508D
:100990004FEACE2EB4F1FD0C88BFBCF5E06F1ED837
:1009A000BEF1004F08BF5FEA500E50F1000041EB6E
:1009B000045170BD06F0004646EA010140EA02001B
:1009C00081EA0301B4EB5C04C2BFD4EB0C0541EA3D
:1009D000045170BD41F480114FF0000E013C00F352
:1009E000AB8014F1360FDEBF002001F0004170BD76
:1009F000C4F10004203C35DA0C341BDC04F114048F
:100A0000C4F1200500FA05F320FA04F001FA05F21A
:100A100040EA020001F0004221F0004110EBD370E7
:100A200021FA04F642EB06015EEA430E08BF20EA13
:100A3000D37070BDC4F10C04C4F1200500FA04F3B6
:100A400020FA05F001FA04F240EA020001F0004148
:100A500010EBD37041F100015EEA430E08BF20EABB
:100A6000D37070BDC4F1200500FA05F24EEA020E03
:100A700020FA04F301FA05F243EA020321FA04F032
:100A800001F0004121FA04F220EA020000EBD370E9
:100A90005EEA430E08BF20EAD37070BD94F0000FE9
:100AA0000FD101F00046400041EB010111F4801F1D
:100AB00008BF013CF7D041EA060195F0000F18BFCE
:100AC000704703F00046520043EB030313F4801F0A
:100AD00008BF013DF7D043EA0603704794EA0C0FC4
:100AE0000CEA135518BF95EA0C0F0CD050EA4106DA
:100AF00018BF52EA4306D1D181EA030101F0004157
:100B00004FF0000070BD50EA410606BF104619467E
:100B100052EA430619D094EA0C0F02D150EA01368A
:100B200013D195EA0C0F05D152EA03361CBF1046CB
:100B300019460AD181EA030101F0004141F0FE416A
:100B400041F470014FF0000070BD41F0FE4141F4EE
:100B5000780170BD70B54FF0FF0C4CF4E06C1CEAEE
:100B600011541DBF1CEA135594EA0C0F95EA0C0FA3
:100B700000F0A7F8A4EB050481EA030E52EA03355E
:100B80004FEA013100F088804FEA03334FF080557F
:100B900045EA131343EA12634FEA022245EA1115AC
:100BA00045EA10654FEA00260EF000419D4208BF5D
:100BB000964244F1FD0404F5407402D25B084FEA0A
:100BC0003202B61A65EB03055B084FEA32024FF4B6
:100BD00080104FF4002CB6EB020E75EB030E22BF13
:100BE000B61A754640EA0C005B084FEA3202B6EBD3
:100BF000020E75EB030E22BFB61A754640EA5C0082
:100C00005B084FEA3202B6EB020E75EB030E22BF11
:100C1000B61A754640EA9C005B084FEA3202B6EB12
:100C2000020E75EB030E22BFB61A754640EADC00D1
:100C300055EA060E18D04FEA051545EA16754FEA33
:100C400006164FEAC30343EA52734FEAC2025FEA51
:100C50001C1CC0D111F4801F0BD141EA00014FF0E0
:100C600000004FF0004CB6E711F4801F04BF0143B1
:100C70000020B4F1FD0C88BFBCF5E06F3FF6AFAECD
:100C8000B5EB030C04BFB6EB020C5FEA500C50F15D
:100C9000000041EB045170BD0EF0004E4EEA1131E0
:100CA00014EB5C04C2BFD4EB0C0541EA045170BDE7
:100CB00041F480114FF0000E013C90E645EA060E2B
:100CC0008DE60CEA135594EA0C0F08BF95EA0C0F59
:100CD0003FF43BAF94EA0C0F0AD150EA01347FF4A1
:100CE00034AF95EA0C0F7FF425AF104619462CE778
:100CF00095EA0C0F06D152EA03353FF4FDAE1046DB
:100D0000194622E750EA410618BF52EA43067FF42B
:100D1000C5AE50EA41047FF40DAF52EA43057FF4BB
:100D2000EBAE12E74FF0FF3C06E000BF4FF0010CC6
:100D300002E000BF4FF0010C4DF804CD4FEA410C2A
:100D40007FEA6C5C4FEA430C18BF7FEA6C5C1BD0F7
:100D500001B050EA410C0CBF52EA430C91EA030F78
:100D600002BF90EA020F0020704710F1000F91EAD5
:100D7000030F58BF994208BF90422CBFD8176FEAA3
:100D8000E37040F0010070474FEA410C7FEA6C5C71
:100D900002D150EA013C07D14FEA430C7FEA6C5C78
:100DA000D6D152EA033CD3D05DF8040B704700BFA4
:100DB0008446104662468C461946634600E000BFF2
:100DC00001B5FFF7B7FF002848BF10F1000F01BDC4
:100DD0004DF808EDFFF7F4FF0CBF012000205DF88F
:100DE00008FB00BF4DF808EDFFF7EAFF34BF012014
:100DF00000205DF808FB00BF4DF808EDFFF7E0FFAD
:100E000094BF012000205DF808FB00BF4DF808EDFD
:100E1000FFF7CEFF94BF012000205DF808FB00BF64
:100E20004DF808EDFFF7C4FF34BF012000205DF846
:100E300008FB00BF4FEA410C7FEA6C5C02D150EA2C
:100E4000013C0AD14FEA430C7FEA6C5C02D152EAC2
:100E5000033C02D14FF0000070474FF00100704793
:100E60004FEA410212F5001215D211D56FF47873D2
:100E7000B3EB625212D94FEAC12343F0004343EA75
:100E8000505311F0004F23FA02F018BF4042704750
:100E90004FF00000704750EA013005D111F00040DA
:100EA00008BF6FF0004070474FF00000704700BF70
:100EB0007BB972B90029BEBF00204FF0004106E0A7
:100EC00008BF00281CBF6FF000414FF0FF3000F05A
:100ED000BFB9ADF1080C6DE904CE002909DB002B88
:100EE0001ADB00F04DF8DDF804E0DDE9022304B080
:100EF0007047404261EB4101002B1BDB00F040F8E2
:100F0000DDF804E0DDE9022304B0404261EB410179
:100F1000524263EB43037047524263EB430300F0DA
:100F20002FF8DDF804E0DDE9022304B0404261EB74
:100F300041017047524263EB430300F021F8DDF8B2
:100F400004E0DDE9022304B0524263EB430370473F
:100F500053B94AB9002908BF00281CBF4FF0FF3120
:100F60004FF0FF3000F074B9ADF1080C6DE904CE1C
:100F700000F006F8DDF804E0DDE9022304B0704774
:100F80002DE9F047089D04468E46002B4DD18A423C
:100F9000944669D9B2FA82F252B101FA02F3C2F16F
:100FA000200120FA01F10CFA02FC41EA030E944000
:100FB0004FEA1C48210CBEFBF8F61FFA8CF708FB21
:100FC00016E341EA034306FB07F199420AD91CEBF9
:100FD000030306F1FF3080F01F81994240F21C812B
:100FE000023E63445B1AA4B2B3FBF8F008FB103373
:100FF00044EA034400FB07F7A7420AD91CEB0404A8
:1010000000F1FF3380F00A81A74240F20781644477
:10101000023840EA0640E41B00261DB1D4400023FC
:10102000C5E900433146BDE8F0878B4209D9002D60
:1010300000F0EF800026C5E9000130463146BDE8EA
:10104000F087B3FA83F6002E4AD18B4202D3824254
:1010500000F2F980841A61EB030301209E46002D03
:10106000E0D0C5E9004EDDE702B9FFDEB2FA82F258
:10107000002A40F09280A1EB0C014FEA1C471FFAB6
:101080008CFE0126200CB1FBF7F307FB131140EA9D
:1010900001410EFB03F0884208D91CEB010103F16A
:1010A000FF3802D2884200F2CB804346091AA4B22C
:1010B000B1FBF7F007FB101144EA01440EFB00FE00
:1010C000A64508D91CEB040400F1FF3102D2A64565
:1010D00000F2BB800846A4EB0E0440EA03409CE704
:1010E000C6F12007B34022FA07FC4CEA030C20FAB1
:1010F00007F401FA06F31C43F9404FEA1C4900FAD1
:1011000006F3B1FBF9F8200C1FFA8CFE09FB18114D
:1011100040EA014108FB0EF0884202FA06F20BD9C0
:101120001CEB010108F1FF3A80F08880884240F210
:101130008580A8F102086144091AA4B2B1FBF9F054
:1011400009FB101144EA014100FB0EFE8E4508D94F
:101150001CEB010100F1FF346CD28E456AD90238D4
:10116000614440EA0840A0FB0294A1EB0E01A142B9
:10117000C846A64656D353D05DB1B3EB080261EB27
:101180000E0101FA07F722FA06F3F1401F43C5E901
:10119000007100263146BDE8F087C2F12003D84037
:1011A0000CFA02FC21FA03F3914001434FEA1C4779
:1011B0001FFA8CFEB3FBF7F007FB10360B0C43EA6B
:1011C000064300FB0EF69E4204FA02F408D91CEB1B
:1011D000030300F1FF382FD29E422DD90238634419
:1011E0009B1B89B2B3FBF7F607FB163341EA0341B9
:1011F00006FB0EF38B4208D91CEB010106F1FF3808
:1012000016D28B4214D9023E6144C91A46EA0046FE
:1012100038E72E46284605E70646E3E61846F8E690
:101220004B45A9D2B9EB020864EB0C0E0138A3E7D9
:101230004646EAE7204694E74046D1E7D0467BE7BA
:10124000023B614432E7304609E76444023842E732
:10125000704700BFDFF834D000F026F80C480D4985
:101260000D4A002302E0D458C4500433C4188C4201
:10127000F9D30A4A0A4C002301E013600432A24267
:10128000FBD302F0C7FF00F09FF870470000022078
:1012900000000020A0020020947B0008A002002093
:1012A00000030020FEE70000034AD2F8883043F430
:1012B0007003C2F88830704700ED00E0164A93686A
:1012C00003F00C03042B0CD0082B0CD0134B124A48
:1012D000134892681349C2F30312825CD3400B6037
:1012E0007047114BF3E75368516813F4800F01F016
:1012F0003F01536814BF0C4A084AB2FBF1F1064A99
:101300005268C2F30142C3F38813013201FB03F3B5
:101310005200B3FBF2F3DAE7003802400024F40095
:10132000187700080400002040787D0110B50023E4
:1013300094B0CDE90B33CDE90933CDE90333CDE9E1
:1013400005331F4901930D930793086C1D4A40F024
:1013500080500864096C01F0805101910199029359
:10136000116841F44041116012680F9302F4404249
:101370000292102301220224CDE90B230298089443
:1013800008216422042308A8CDE91012CDE91243F4
:101390000E9400F08FF808B172B6FEE70F210346F5
:1013A000CDE903144FF4805203A80321CDE905329F
:1013B000079300F0F3FA08B172B6FEE714B010BD5F
:1013C000003802400070004008B502F017FDFFF73A
:1013D000ADFF00F017F8094C642002F05BFD01221C
:1013E0002021204601F044FB4FF4C87002F052FD6A
:1013F00000222021204601F03BFBEDE700000240E7
:1014000072B6FEE710B5002486B0CDE90144CDE9FF
:1014100003440E4B009405941A6B0D4842F00102F0
:101420001A631B6B03F00103009322462021009BEB
:1014300001F01EFB20220123054801A9CDE901236B
:10144000CDE9034401F090F906B010BD0038024028
:1014500000000240FEE700BFFEE700BFFEE700BF5E
:10146000FEE700BFFEE700BF704700BF704700BF48
:10147000704700BF02F0DCBC82B00C4B0021009131
:101480005A6C42F480425A645A6C02F480420092D0
:10149000009A01911A6C42F080521A641B6C03F09E
:1014A00080530193019B02B0704700BF0038024097
:1014B00000207047002800F0A2812DE9F041036868
:1014C000DD0782B004462FD59E498A6802F00C02DF
:1014D000042A00F0ED808A6802F00C02082A00F06D
:1014E000E3806368B3F5803F00F0EC80B3F5A02F94
:1014F00000F07581934D2A6822F480322A602A68B0
:1015000022F480222A60002B40F0E18002F09CFC53
:10151000064605E002F098FC801B642800F2018179
:101520002B689B03F6D423689F0728D5854A9168CA
:1015300011F00C0F00F09080916801F00C01082967
:1015400000F08680E368002B00F00E817E4B7D4E1C
:1015500001221A6002F078FC054605E002F074FCF6
:10156000401B022800F2DD8033689807F6D5336807
:10157000226923F0F80343EAC203336023681A07A1
:1015800051D458072FD56F4A136C13F080537FD076
:1015900000256E4E3368D90540F1B380A368012B56
:1015A00000F0C380052B00F02C81664E326F22F0D4
:1015B00001023267326F22F004023267002B40F0E2
:1015C000B98002F041FC41F28838074605E002F09C
:1015D0003BFCC01B404500F2A480336F9807F6D453
:1015E000002D40F00681A069C8B1564DAB6803F0EC
:1015F0000C03082B00F0C980534B002202281A6606
:1016000000F0098102F020FC044605E002F01CFC19
:10161000001B022800F285802B689B01F6D4002075
:1016200002B0BDE8F08163690BB3474B454E012220
:10163000C3F8802E02F008FC054604E002F004FC2A
:10164000401B02286DD8736F9B07F7D5236898E776
:10165000526856023FF576AF3A4A1268950744D56C
:10166000E268012A41D0012002B0BDE8F081364A8B
:10167000344EC2F8803E02F0E7FB054604E002F07B
:10168000E3FB401B02284CD8736F9F07F7D4DDE7BC
:101690000193136C43F080531364136C03F0805375
:1016A0000193019B012574E74A6850027FF519AF49
:1016B000244A126891037FF537AF6268002A7FF4ED
:1016C00033AFD0E71F4A136843F48033136002F04E
:1016D000BBFB1C4E054604E002F0B6FB401B642831
:1016E0001FD833689A03F7D51DE7164920690A68A1
:1016F00022F0F80242EAC0020A601A077FF541AF01
:1017000091E7336843F48073336002F09DFB074632
:101710003368DA053FF542AF02F096FBC01B0228A2
:10172000F6D9032002B0BDE8F081064A136F43F0FA
:101730000103136702F088FB024F064641F2883826
:101740000BE000BF0038024000004742007000403C
:1017500002F07AFB801B4045E3D83B6F9B07F7D52F
:10176000002D3FF440AF44E0424A434E136002F084
:101770006BFB054604E002F067FB401B0228D0D853
:1017800033689907F7D42368F9E601283FF448AF96
:101790006B68E26903F4800191427FF464AF226ACE
:1017A00003F03F0191427FF45EAF616A47F6C07279
:1017B0001A40B2EB811F7FF456AFA26A520803F4BD
:1017C0004031013AB1EB024F7FF44DAFE26A03F0D2
:1017D0007063B3EB026F14BF0120002020E7264B9B
:1017E0001A6842F480221A601A6842F480321A6041
:1017F0006DE7214A136C23F080531364F3E6012054
:1018000070471D4B1A6F42F004021A671A6F42F0BC
:1018100001021A678EE702F017FB064605E002F0A8
:1018200013FB801B02283FF67CAF2B689901F6D48E
:10183000D4E90731626A0B4343EA8213D4E90A21EF
:10184000520843EA0163013A0A4943EA024301228A
:101850006B600A6602F0F8FA074D044605E002F0F4
:10186000F3FA001B02283FF65CAF2B689A01F6D50D
:10187000D5E600BF000047420038024070B50D4673
:1018800088B0144600BB224E0190326B42F0010238
:101890003263326B059002F0010201924FF48072C4
:1018A000039202220346019904921A4807930322E5
:1018B00003A9069200F058FFB26822F0EC622A43B6
:1018C0002243B26008B070BD114E1348002302934A
:1018D000326B42F004023263326B059302F0040271
:1018E00002924FF40072039202220299049203A919
:1018F00003220793069200F037FFB36823F0784382
:1019000043EA050141EAC401B16008B070BD00BFFF
:10191000003802400000024000080240014B012252
:10192000DA64704700004742014B0022DA647047D6
:1019300000004742164908B58B6803F00C03042BDE
:101940001BD0082B17D14A684B68496813F48003F1
:1019500002F03F0213D10F48C1F38811A1FB00012F
:10196000FFF7F6FA0A4B5B68C3F3014301335B00F0
:10197000B0FBF3F008BD074808BD074808BD06489E
:10198000C1F388110023A1FB0001FFF7E1FAE9E7A9
:10199000003802400024F40040787D01002800F067
:1019A0008780484A136803F007038B422DE9F04112
:1019B0000D46044609D2CBB21370136803F0070337
:1019C0008B4202D00120BDE8F0812368980714D52E
:1019D000590704D53C498A6842F4E0528A601A07E4
:1019E00004D539498A6842F460428A603649A06861
:1019F0008A6822F0F00202438A60DF0721D562681C
:101A0000012A57D0931E012B2F4B1B684DD99907E4
:101A1000D8D52D4EB36823F003031343B36002F00F
:101A200013FA41F28838074604E002F00DFAC01BB1
:101A3000404544D8B368626803F00C03B3EB820FEF
:101A4000F3D1204A136803F00703AB4206D9EBB287
:101A50001370136803F00703AB42B3D123685A072E
:101A600006D51949E0688A6822F4E05202438A6088
:101A70001B0707D5144A2169936823F4604343EA9E
:101A8000C1039360FFF756FF0F4A104C926810494C
:101A9000C2F303120346A25C0E48D34000680B60F9
:101AA00002F088F90020BDE8F0819801B1D489E7FF
:101AB00001207047044B1B689E03AAD482E70320D1
:101AC00081E700BF003C0240003802401877000860
:101AD000040000200C000020014B1868704700BF74
:101AE00004000020044B05499B68054A0868C3F3BD
:101AF0008223D35CD84070470038024004000020A5
:101B000028770008044B05499B68054A0868C3F319
:101B10004233D35CD84070470038024004000020B4
:101B2000287700080F22244B02601A68510334D52D
:101B30004FF4A0234360204B1A6802F00102C260F8
:101B40001A68C2F3C40202611A6F52072DD5052329
:101B50008360194B5A6F02F0010242611A6812F059
:101B6000807F14BF0222012282615A6802F480023F
:101B7000C2615A6802F03F0202625A68C2F38812D8
:101B800042625A6802F4403202F58032D20B82621D
:101B90005B68C3F30363C36270471B6813F480334D
:101BA00018BF4FF480334360C5E71B6F13F0010388
:101BB00018BF01238360CCE7003802400E4B0F2290
:101BC00002609A6802F0030242609A6802F0F00232
:101BD00082609A6802F4E052C2609B68DB0810B42D
:101BE00003F4E053054C036123685DF8044B03F0F4
:101BF00007030B60704700BF00380240003C024002
:101C0000704700BF10B5054CE3681B0600D410BD3B
:101C1000FFF7F6FF8023A37310BD00BF003802401A
:101C2000F0B5036813F0050F83B004460ED1980792
:101C300047D413F0080302D1184603B0F0BD4A4B55
:101C4000227DC3F8E021002003B0F0BD474B484E91
:101C500000229A6602F0F8F8054604E002F0F4F873
:101C6000431B022B2AD833681B01F7D4D4E9021393
:101C700062681B0743EA811313433C4AC6F8843069
:101C80000121916602F0E0F8394E054604E002F0C9
:101C9000DBF8401B022811D833681F01F7D52368F1
:101CA000C5E702F0D1F841F2883706462B6F9B0753
:101CB0003CD402F0C9F8801BB842F7D9032003B026
:101CC000F0BD2B4B2B4D002201921A6C42F080523A
:101CD0001A641B6C03F080530193019B2B6843F43F
:101CE00080732B6002F0B0F8064604E002F0ACF816
:101CF000831B022BE2D82B68D905F7D51C4D23692D
:101D00002A6F12F4407212D003F44071914210D045
:101D10002B6F164A0121C2F8401E23F440730021A4
:101D2000C2F8401E2B672B6FDA07BAD4236903F47D
:101D30004072B2F5407F0CD00D498A6822F4F81247
:101D40008A600B4A116FC3F30B030B4313672368BD
:101D50006FE70748826823F0704121F4407122F454
:101D6000F8120A438260ECE7001047420000474245
:101D700000380240007000400F4B03220260D3F88D
:101D80008420C2F388128260D3F88420C2F30272E6
:101D9000C260D3F8842002F03F02426099681A6F53
:101DA00001F4F81102F440720A430261D3F88C3056
:101DB000C3F300630375704700380240012801D067
:101DC000002070470F4B9A68120201D50E487047E9
:101DD0005A6812F4800FD3F884200A4B14BF0B48C2
:101DE0000B4802F03F02B0FBF2F2D3F88400D3F8C4
:101DF0008430C0F3881002FB00F0C3F30273B0FB21
:101E0000F3F07047003802400080BB0040787D014D
:101E10000024F400044A136F01280CBF43F00803A8
:101E200023F008031367704700380240174B002265
:101E300070B59A66064602F007F8154D044604E0B0
:101E400002F002F8031B022B1DD82B681A01F7D4ED
:101E5000D6E9012331681B0743EA82130B4A0B437F
:101E60000121C5F88430916601F0EEFF084D04466B
:101E700004E001F0E9FF001B022804D82B681B01D5
:101E8000F7D5002070BD032070BD00BF00004742A1
:101E90000038024038B50A4B0A4D00229A6601F01C
:101EA000D3FF044604E001F0CFFF001B022805D851
:101EB0002B6813F00063F6D1184638BD032038BDF7
:101EC000000047420038024070B5424C01F0BCFFB0
:101ED000236843F001030546236004E001F0B4FFEA
:101EE000401B022873D823689807F7D52368394E1A
:101EF00043F08003236001F0A7FF0023A3600546A1
:101F000041F2883404E001F09FFF401BA0425ED8FC
:101F1000B36813F00C0FF6D101F096FF33682D4D26
:101F200023F450230446336004E001F08DFF001BCE
:101F300064284CD82B689903F7D401F085FF2B68EF
:101F4000244E23F0807304462B6004E001F07CFFF4
:101F5000001B02283BD833689A01F7D401F074FFC4
:101F600033681C4C23F080630546336004E001F0C5
:101F70006BFF401B02282AD823681B01F7D4164A9E
:101F8000164B6260C4F88430E368154A1549164D53
:101F900023F4F853E360E36823F40053E360E36859
:101FA00043F41F03E360E36843F40013E360636FEB
:101FB00023F001036367636F43F080736367106806
:101FC0000D6001F0F7FE003818BF012070BD03203E
:101FD00070BD00BF003802401030000410300020F7
:101FE0000C000020040000200024F400214BDA68DB
:101FF000D00605D52049CA6910200243CA61D860BD
:102000001C4BDA68910606D51B49CA69202042F0AC
:102010000802CA61D860174BDA68520606D516491D
:10202000CA69402042F00402CA61D860114BDA68E4
:10203000100606D51049CA69802042F00202CA6122
:10204000D8600C4BDA68D10507D50B49CA694FF443
:10205000807042F00102CA61D860064BDA689207CC
:1020600006D50549CA69022042F02002CA61D8603B
:10207000704700BF003C0240BC02002070B42D4DF0
:102080002C7E012C33D02C4C01262E76266946F06E
:1020900080762661266946F00076266103262E703A
:1020A0006961B0B1012835D0022823D0206920F41D
:1020B00040702061206940F440702061206940F048
:1020C000010020610A60BFF36F8F00204B6070BC7D
:1020D0007047236923F440732361236923612369D3
:1020E000D2B243F00103236170BC0A707047022032
:1020F00070BC7047236923F440732361236943F460
:1021000000732361236943F001032361002070BC45
:102110000A607047236923F440732361236943F401
:1021200080732361236992B243F00103236100208D
:102130000A80CCE7BC020020003C0240704700BF90
:10214000704700BF30B5304B304CDB6813F4F97F7B
:1021500083B00FD02378012B41D02378022B0CBF02
:10216000206960690190FFF741FF0198FFF7E8FFE0
:1021700000232370244BDA68D2070CD50122DA60E1
:10218000237893421BD02378022B2DD06069FFF770
:10219000D5FF00232370237803F0FF016BB91A4B9E
:1021A0001A6922F0FF021A611A6922F080721A611C
:1021B0001A6922F000721A61217603B030BD63689B
:1021C000013B63606368ABB1E068FFF7B7FFE368AA
:1021D0000133E360E068217A00F0D2F9DBE74FF0E9
:1021E000FF33E068E360BDE700F030FA2069FFF7F5
:1021F000A5FFCEE74FF0FF35E560237000F026FA2B
:102200002846FFF79BFFC6E7003C0240BC020020C7
:10221000064B1A69002A01DB002070470449054A71
:1022200059605A601869C00F704700BF003C0240F7
:1022300023016745AB89EFCD034A136943F000439F
:1022400000201361704700BF003C0240054B5A69F3
:10225000D20705D50449054A996000209A60704765
:1022600001207047003C02403B2A19087F6E5D4CFC
:10227000034A536943F0010300205361704700BFD4
:10228000003C024070B5134C134A237D43F0020317
:1022900000212375D16101F0D7FD4CF2503605467F
:1022A00004E001F0D1FD401BB0420DD8E368DA0331
:1022B000F7D4E368DB0744BF0123E360054BD8682C
:1022C00010F4F97002D170BD032070BDFFF78EFECF
:1022D000012070BD003C0240BC020020014BD869C7
:1022E000704700BFBC020020124B70B500220446AC
:1022F000DA6101F0A9FD104D064601E0611C0DD127
:10230000EB68DA03FAD4EB68DB0744BF0123EB6028
:10231000094BD86810F4F97008D170BD24B101F0F0
:1023200093FD801BA042EBD9032070BDFFF75EFE3A
:10233000012070BDBC020020003C02402DE9F041AC
:10234000304D95F818C0BCF1010F32D080461C46C4
:102350004CF2503001230E4617462B76FFF7C4FF90
:1023600018B100232B76BDE8F081274BB8F1000FA0
:1023700022D0B8F1010F35D01A6922F440721A61E7
:10238000B8F1020F1A6924D042F440721A611A6936
:1023900042F001021A613760BFF36F8F74604CF234
:1023A0005030FFF7A1FF184A136923F001031361AE
:1023B000D7E70220BDE8F081196921F44071196165
:1023C000196919611969FAB241F001011961327094
:1023D000E5E742F400721A611A6942F001021A61DB
:1023E0003760DCE7196921F440711961196941F41A
:1023F000807119611969BAB241F001011961328025
:10240000CDE700BFBC020020003C024070B52D4D5E
:102410002B7E012B54D001222A7603680446D8076C
:1024200013D41046990721D45A072BD41B0709D57A
:10243000254B227D197D01F0F3011975197D0A43A1
:1024400000201A7500232B7670BD6368A66893423E
:102450004CF2503028D0FFF747FF18BB1A4A2368C8
:10246000D18A0E43B6B29907D682DDD54CF25030F0
:102470002669FFF739FF10B9134BF6B25E75236872
:102480005A07D3D54CF25030267EFFF72DFF38B9CE
:102490000D4A137D26F01F0603F01F031E43167519
:1024A0002368C3E72368BDE7FFF71EFF0028F9D1C3
:1024B00005492368CA8A92B222EA0602CA82B1E7B3
:1024C000022070BDBC020020003C02400C4AD38AAE
:1024D0000F219BB283600160517DCC29CBB204D027
:1024E000537DAA2B0CBFAA235523054A03615369C8
:1024F00023F01F030376137D03F00C034361704741
:10250000003C02400268D30711D542680346012A05
:1025100010B54CF250301C890BD0FFF7E5FE28B9FE
:10252000094AD38A9BB223EA0403D38210BD012057
:102530007047FFF7D9FE0028F8D1034AD38A9BB22F
:102540001C43D48210BD00BF003C0240014BDB8A1B
:1025500003817047003C0240034AD37D43F080036F
:102560000020D375704700BF003C0240034AD37D72
:1025700003F07F030020D375704700BF003C02408A
:1025800039B101291CD002290CBF4FF400714FF45E
:1025900040710D4B1A6922F440721A611A69114395
:1025A00019611A6922F0F8021A611A6942EAC00038
:1025B00040F0020018611A6942F480321A617047D3
:1025C0004FF48071E5E700BF003C024010B51D4CA0
:1025D000237E012B34D01C4B1A694FF0010C42F0C2
:1025E000807284F818C01A611A6942F000721A6188
:1025F000F322DA60026862450CD08368C268017C0D
:1026000084F800C018466260E3602172FFF7B8FFEB
:10261000002010BD426802212170226119690269FF
:1026200021F440711961196941F0040119611969B6
:10263000120292B20A4342F480321A61002010BDA5
:10264000022010BDBC020020003C0240144B1A685E
:1026500091050FD51A6822F400721A601A6842F4C4
:1026600000621A601A6822F400621A601A6842F462
:1026700000721A600A4B1A6852050FD51A6822F4C4
:1026800080621A601A6842F480521A601A6822F452
:1026900080521A601A6842F480621A60704700BF64
:1026A000003C02402DE9F8432D4F3B7E012B38D0F2
:1026B000012304464CF2503088463B76FFF714FE67
:1026C000064648BB4FF0FF33C8F800302368012BA3
:1026D0002BD0D4E902532B44AB421BD9DFF88490B2
:1026E00005E0D4E9022301351344AB4212D9217C21
:1026F0002846FFF745FF4CF25030FFF7F5FDD9F8BB
:10270000103023F0FA03C9F810300028E9D0C8F8D7
:1027100000500646FFF79AFF00233B763046BDE89F
:10272000F88302263046BDE8F8830E4D23692A69F6
:1027300022F440722A612A6942F004022A612A695D
:102740001B029BB2134343F480332B614CF2503095
:10275000FFF7CAFD2B6923F0040306462B61D9E776
:10276000BC020020003C02402DE9F04F00220C6822
:10277000704E85B013464FF0010A894604E00133DC
:10278000102B02F1020278D00AFA03F101EA040BDD
:10279000A143F4D1D9F804C00CF003014D1E012D62
:1027A0006ED9032940F0AE809140CD4307683D408B
:1027B00029431CF4403F0160E1D05F4D00210391AB
:1027C000696C41F480416964696C01F48041039152
:1027D000039923F0030101F1804101F59C3103F0DD
:1027E0000307D1F808E0BF000F25BD402EEA050819
:1027F000524DA84217D005F58065A84200F08680AA
:102800004F4DA84200F087804E4DA84200F08A80CC
:102810004D4DA8420CBF4FF0040E4FF0070E0EFABC
:1028200007F748EA0708C1F80880B1686FEA0B07A4
:102830001CF4801F0CBF39404BEA0101B160F56800
:102840001CF4001F0CBF3D404BEA0505F5607568A0
:102850001CF4003F0CBF3D404BEA05057560316834
:102860001CF4803F03F101030CBF39404BEA010126
:10287000102B316002F1020286D105B0BDE8F08F65
:10288000D9F80C50876805FA02F8032505FA02FE0C
:1028900027EA0E0748EA0707876047686FEA0E05D0
:1028A00027EA0B0ECCF300179F4047EA0E0747605C
:1028B000C76807EA050ED9F80870974047EA0E077F
:1028C0000229C76001FA02F17FF470AF4FEAD30E1C
:1028D00000EB8E0E03F00708DEF820700097D9F8A1
:1028E00010704FEA880807FA08F701970F2707FAD0
:1028F00008F8009F27EA0808019F47EA0807CEF872
:10290000207053E703259540ED43D1E70AFA07F716
:1029100048EA070887E74FF0020E0EFA07F748EA81
:10292000070880E74FF0030E0EFA07F748EA07089A
:1029300079E700BF003C014000380240000002403F
:1029400000080240000C0240001002402DE9F04F48
:102950000023DFF80CB101264FF00F094FF0030AF6
:1029600002E00133102B64D006FA03F232EA0104CC
:1029700002EA010CF5D123F0030505F1804505F5C8
:102980009C3503F00304A400D5F808E009FA04F824
:102990005845274608EA0E0E4DD02C4CA0424CD08C
:1029A0002B4CA0424CD02B4CA0424CD02A4CA042E5
:1029B00014BF07240424BC40A64515D1274C274F3B
:1029C000246824EA0C043C607C6824EA0C047C60E3
:1029D000FC6824EA0C04FC60BC6824EA0C04BC60BB
:1029E000AC6824EA0804AC6005685C000AFA04F4E8
:1029F0004FEAD30C25EA040500EB8C0C056003F0CC
:102A00000705DCF820E0AD0009FA05F52EEA05051A
:102A1000CCF82050C56825EA0405C560456825EA5C
:102A2000020242608268013322EA0404102B8460AF
:102A30009AD1BDE8F08F0024BEE706FA07F4BBE7A1
:102A40000224BC40B8E70AFA07F4B5E700040240E4
:102A500000080240000C024000100240003C01400F
:102A6000000002400369194214BF01200020704792
:102A700002B9090481617047436901EA030221EA4E
:102A8000030141EA02418161704700BF82B04FF407
:102A900080330193019B0B430193019BC361C1618F
:102AA000019BC361C3690193C06980F48030C0F3A6
:102AB000004002B0704700BF704700BF044A516930
:102AC000014200D1704708B55061FFF7F5FF08BD1E
:102AD000003C014030B48568802D27D090F8344008
:102AE000012C07D090F835404FF0010C644580F878
:102AF00034C002D0022030BC704704684FF0020C92
:102B000080F835C0206840F480202060402D23618B
:102B1000029B63600BBFA260A160E160E26023687A
:102B200043F001030020236030BC70474FF48073F2
:102B3000436530BC0120704770B48568802D1DD07E
:102B4000C46BB4B1446CA4B1C46C94B190F834407B
:102B5000012C00F0F18090F835404FF0010C6445F5
:102B600080F834C010D0002380F8343070BC0220CC
:102B7000704740234365012070BC70474FF4807359
:102B8000436570BC01207047022680F835600468F8
:102B900000264665266846F4802626602361039B4E
:102BA0006360B34B402D0BBFA260A160E160E260A7
:102BB0009C4269D9A3F589639C4243D003F58063A5
:102BC0009C423FD0A3F568739C423BD003F58063E1
:102BD0009C4237D0A3F589639C4200F06B8103F5DA
:102BE00080639C4200F06681A3F568739C4200F00C
:102BF000618103F580639C4200F05C81A3F58963E9
:102C00009C4200F0938103F580639C4200F08E812A
:102C1000A3F568739C4200F0898103F580639C42B0
:102C200000F08481934B4FF000614FF08062D960D7
:102C3000DA604FF000714FF08072D960DA604FF4C3
:102C4000800209E08B4B20211022D960DA60082134
:102C50000422D960DA600122864BDA602368026CB4
:102C600043F016032360636943F080036361002A25
:102C70005ED0236843F008032360236843F0010318
:102C80000020236070BC70477B4B9C4256D87B4B26
:102C90009C4240F2A780483B9C4200F0F58003F53F
:102CA00080639C4200F0F080A3F568739C4200F0C2
:102CB000EB8003F580639C4200F0E680A3F5896316
:102CC0009C4200F0248103F580639C4200F01F8148
:102CD000A3F568739C4200F01A8103F580639C425F
:102CE00000F01581A3F589639C4200F04F8103F544
:102CF00080639C4200F04A81A3F568739C4200F017
:102D0000458103F580639C4200F040815C4B4FF0AD
:102D100000614FF08062D960DA604FF000714FF0CF
:102D20008072D960DA604FF48003554AD36095E72A
:102D3000836C002B9DD1A0E702201DE7A83B9C429D
:102D400045D003F580639C4241D0A3F568739C4253
:102D50003DD003F580639C4239D0A3F589639C4242
:102D600000F0B78003F580639C4200F0B280A3F5C9
:102D700068739C4200F0AD8003F580639C4200F0D4
:102D8000A880A3F589639C4200F0E08003F580638E
:102D90009C4200F0DB80A3F568739C4200F0D68073
:102DA00003F580639C4200F0D180324B4FF000610C
:102DB0004FF0806299609A604FF000714FF080721E
:102DC00099609A604FF480022A4B9A6046E7294B3B
:102DD0002021102299609A600821042299609A604B
:102DE0000122F1E7274B9C4259D003F580639C42B6
:102DF00055D0A3F568739C4251D003F580639C4283
:102E00004DD0A3F589639C4272D003F580639C4248
:102E10006ED0A3F568739C426AD003F580639C4230
:102E200066D0A3F589639C4200F0A08003F580631F
:102E30009C4200F09B80A3F568739C4200F0968052
:102E400003F580639C4200F091800D4B4FF00061D0
:102E50004FF0806299609A604FF000714FF080727D
:102E600099609A604FF48003054A9360F6E600BFCC
:102E70005864024000640240B8600240586002405A
:102E80000060024010600240484B20211022D960AF
:102E9000DA6008210422D960DA60012345E7434B58
:102EA0002021102299609A600821042299609A607A
:102EB0000123D9E73E4B4FF400614FF48062D960A3
:102EC000DA604FF400714FF48072D960DA6040220A
:102ED000C2E6374B4FF400614FF4806299609A600C
:102EE0004FF400714FF4807299609A6040226BE752
:102EF0002E4B4FF400614FF4806299609A604FF45A
:102F000000714FF4807299609A604023ACE7274BC0
:102F10004FF400614FF48062D960DA604FF40071C1
:102F20004FF48072D960DA604023FEE6204B4FF404
:102F300000114FF48012D960DA604FF400214FF491
:102F40008022D960DA604FF4803285E6184B4FF466
:102F500000114FF4801299609A604FF400214FF4F1
:102F6000802299609A604FF480322DE70F4B4FF426
:102F700000114FF4801299609A604FF400214FF4D1
:102F8000802299609A604FF480336DE7074B4FF4CD
:102F900000114FF48012D960DA604FF400214FF431
:102FA0008022D960DA604FF48033BEE600600240D0
:102FB00000640240036812B9D960002070471961AB
:102FC0000020704738B5044600F03EFF002C67D063
:102FD00023680022022184F8351084F834201A680E
:102FE00022F0010205461A6005E000F02DFF431BA8
:102FF000052B39D823681A68D107F6D4D4E9012003
:10300000E16802430A43D4E90451A0692A430A4310
:10301000E1691D6802430A4333492940256A2A436E
:103020000A43616A042926D01A605A6922F007020D
:103030001143D8B22D4A59611038A2FB005212092F
:103040002B4923F47F73895CE16523F003035F2838
:1030500088BF04333F228A40A36500209A60012381
:10306000606584F8353038BD03232022626584F81A
:103070003530184638BDD4E90B5129430A431A604C
:103080005969A26A21F00701114341F00401002DA2
:10309000CFD038B9012A23D032F00202C9D108E0DA
:1030A000012038BDB0F5005F0CD0022A03D9032AF5
:1030B000BFD1EA01BDD501234022626584F83530D5
:1030C000184638BD032AB4D801A050F822F000BF3A
:1030D000B7300008B3300008B7300008E13000080E
:1030E000B5F1C07FA5D1E6E73F8010F0ABAAAAAA50
:1030F00030770008002835D090F83530022BD9B24F
:1031000031D00368194AD9B2103970B4A2FB015208
:10311000174C1D68120925F00105A65C1D600022F0
:103120001A605A609A60DA601A6121225A6123F4A7
:103130007F7323F003035F2988BF04333F240022F9
:10314000B440C665C0E90F22C0E91122C0E91322CC
:1031500083659C60426580F8342080F8352070BC1F
:103160001046704701210846704700BFABAAAAAAC3
:103170003077000830B490F83440012C25D0012479
:1031800080F8344090F83540012C05D0002380F8B9
:10319000343030BC02207047022480F835400024CF
:1031A0004465046885682068402D20F480202060F4
:1031B00063600BBFA260A160E160E260236843F03E
:1031C00001030020236030BC7047022030BC7047F0
:1031D00070B490F83440856D012C35D090F83540AE
:1031E0004FF0010C644580F834C005D0002380F80E
:1031F000343070BC02207047022680F835600468C5
:1032000000264665266826F480262660636083686B
:10321000402B0EBFA260A160E260C26D08BFE160FA
:103220003F239340AB602368026C43F01603236096
:103230001AB1236843F008032360236843F00103B5
:103240000020236070BC7047022070BC704700BF34
:1032500070B50446866D00F0F7FD94F83530022B0A
:1032600006D00023802284F834306265012070BDCE
:1032700023681A6822F016021A605A6922F0800246
:103280005A61226C054632B31A6822F008021A60AD
:103290001A6822F001021A6005E000F0D5FD431B18
:1032A000052B0FD823681B6813F00103F5D1E16DDE
:1032B0003F228A400121B26084F8351084F834300E
:1032C000184670BD032020220023626584F8343044
:1032D00084F8350070BDA26C002AD5D1D8E700BFB4
:1032E00090F83530022B03D08023436501207047CE
:1032F0000268052380F83530136823F001030020AD
:10330000136070472DE9F04F044683B09346019156
:1033100000F09AFD94F83530022B08D0802200236B
:10332000626584F83430012003B0BDE8F08F236873
:103330001B68D90556D4019B0546002B59D0E16D79
:1033400010268E40D4F858A0DAF800301E4236D14C
:103350004FF008094FF0010804272DE0BBF1FF3FB3
:1033600008D0BBF1000F48D000F06EFD401B58455F
:1033700043D8E16DDAF8003009FA01F0184205D0BF
:10338000626D42F001026265CAF8080008FA01F0B5
:10339000184205D0626D42F002026265CAF8080068
:1033A00007FA01F0184205D0626D42F0040262652E
:1033B000CAF808001E4202D1636DDA07CED5636DEC
:1033C00013B1636DDB072BD4019A12BB302303FAD0
:1033D00001F10123CAF80810104684F8353084F84A
:1033E0003420A1E74FF480730120636503B0BDE88A
:1033F000F08FE16D20268E40A4E7202101230022DA
:103400000320616584F8342084F8353003B0BDE8CA
:10341000F08F102303FA01F1CAF80810002083E7A7
:103420002046FFF715FFE16D30238B40CAF80830C6
:103430000120002384F8350084F8343074E700BF9D
:103440002DE9F04182B0744A866D1568002301931E
:10345000C36D346808229A402242804604D0016835
:103460000F68780700F18A8001229A40224204D036
:10347000D8F800104969090678D404229A402242FB
:1034800004D0D8F8001009688F0767D410229A403A
:10349000224204D0D8F800100F68380749D42022FF
:1034A0009A40224217D0D8F800100C68E00612D5D6
:1034B000B26098F83520052A73D00B6813F4802F7A
:1034C0000B6800F09080190340F19B80D8F83C30E5
:1034D0000BB140469847D8F854303BB3D8F8543035
:1034E000DA071BD5D8F800204C49052388F8353079
:1034F0001368A1FB051523F00103AD0A136002E078
:103500001368DB0704D5019B0133AB420193F7D964
:103510000122002388F8352088F83430D8F84C3060
:1035200023B1404602B0BDE8F041184702B0BDE803
:10353000F081B2600A6812F4802F0A682AD1D70598
:1035400003D40A6822F008020A60D8F84020002A52
:10355000A5D040469047D8F85C30A0E7B260D8F8D4
:10356000542042F00402C8F854208FE7B260D8F823
:10357000542042F00202C8F854207EE70F6827F07A
:1035800004070F60B260D8F8542042F00102C8F876
:10359000542069E71203D8D5D8F84820002AD8D19A
:1035A0007DE70A6822F016020A604A6922F080026A
:1035B0004A61D8F8402052B30A6822F008020A6033
:1035C0003F2202FA03F3D8F85010B360012200231F
:1035D00088F8352088F834300029A7D0404602B05A
:1035E000BDE8F041084713F480737FF46FAF0A68B9
:1035F00022F010020A60012288F8352088F8343061
:1036000064E7D8F84430002B7FF463AF63E7D8F861
:103610004820002AD0D1D3E704000020B5814E1BFA
:1036200090F83430012B13D090F835C0BCF1010F65
:103630005FFA8CF305D00123002280F8342018466D
:1036400070470529F8D8DFE801F0090C0F121506BC
:1036500002231846704702650023EDE7C2630B465C
:10366000EAE702640023E7E742640023E4E78264B8
:103670000023E1E7C2640023DEE700BF90F83430A6
:10368000012B16D090F835204FF0010C624580F8E0
:1036900034C0D3B205D06346002280F834201846E7
:1036A00070470629F8D8DFE801F00F1316191C1F20
:1036B00007000223184670470023C0E90F33C0E912
:1036C0001133C0E91333E7E70023C3630B46E3E795
:1036D00000230364E0E700234364DDE70023836401
:1036E000DAE70023C364D7E700230365D4E700BF0C
:1036F00090F83500704700BF406D7047044B1A6A60
:1037000042F080521A621A6A22F080521A6270479E
:1037100000380240044A054B012182B011621B6847
:103720000193019B02B0704700000E420070004000
:10373000044A054B002182B011621B680193019B72
:1037400002B0704700000E42007000401B491C4B45
:103750000A6810B4046822F0E00222430A605A6842
:1037600022F480325A601A6822F480321A609A6811
:1037700022F480329A60DA6822F48032DA60426899
:10378000D40303D5196841F480311960900304D53E
:103790000B494B6843F480334B60D10704D508498B
:1037A0008B6843F480338B60930704D5044AD36855
:1037B00043F48033D3605DF8044B704700700040E1
:1037C000003C0140014B01221A61704700000E428B
:1037D000014B00221A61704700000E42024A5368F2
:1037E00018435060704700BF00700040024A5368A1
:1037F00023EA00005060704700700040074A1369D8
:10380000012923F00403136105D0032901D040BF2F
:1038100020BF20BF704730BF704700BF00ED00E001
:1038200010B40E4C0E4A236823F0030318432060A3
:103830001369012943F0040313610CD0032901D05B
:1038400040BF20BF20BF064A5DF8044B136923F038
:1038500004031361704730BFF5E700BF00700040FC
:1038600000ED00E00549064A0B6843F002030B60D7
:10387000136943F00403136130BF704700700040C8
:1038800000ED00E0704700BF10B5054C6369DB0335
:1038900000D410BDFFF7F6FF4FF48033636110BD15
:1038A000003C0140024A136943F002031361704770
:1038B00000ED00E0024A136923F002031361704730
:1038C00000ED00E0024A136943F0100313617047F2
:1038D00000ED00E0024A136923F010031361704702
:1038E00000ED00E038B50B4B0B4D0122C3F8A420CE
:1038F00000F0AAFA044605E000F0A6FA001BB0F5B5
:103900007A7F04D86B681B07F6D5002038BD0320EA
:1039100038BD00BF00000E420070004038B50B4BB0
:103920000B4D0022C3F8A42000F08EFA044605E0F7
:1039300000F08AFA001BB0F57A7F05D86B6813F0A7
:103940000803F5D1184638BD032038BD00000E42EB
:1039500000700040014B01225A62704700000E4285
:10396000014B00225A62704700000E42024B186859
:1039700000F44040704700BF0070004070B582B056
:10398000294C00220092236C43F080532364236C63
:1039900003F080530093009BA36803F00C03082BF3
:1039A0003ED0224B1A66064600F04EFA054604E069
:1039B00000F04AFA431B022B2FD8236813F0007340
:1039C000F6D11B4A019313681849174D23F440435D
:1039D0001E431660136803F4404301930122019BC8
:1039E0000A6600F031FA044604E000F02DFA001BEC
:1039F000022812D82B689A01F7D500F025FA0C4D51
:103A0000044605E000F020FA001BB0F57A7F04D8E8
:103A10006B685B04F6D5002000E0032002B070BDA7
:103A2000012002B070BD00BF0038024000004742D4
:103A300000700040014B0122DA62704700000E4224
:103A4000014B0022DA62704700000E42014B012256
:103A50009A62704700000E42014B00229A62704742
:103A600000000E420749CA6803024FF6FF0003F444
:103A7000E0630240134343F0BF6343F40033CB6081
:103A8000704700BF00ED00E01C4BDB68C3F302236E
:103A900000B5C3F1070EBEF1040F03F1040C28BFFB
:103AA0004FF0040EBCF1060F1BD9033B4FF0FF3C57
:103AB0000CFA03FC22EA0C024FF0FF3C0CFA0EFC5D
:103AC00021EA0C019940002841EA02010CDB00F1D7
:103AD0006040090100F56140C9B280F800135DF84B
:103AE00004FB00221346E7E7054B00F00F00090135
:103AF0000344C9B219765DF804FB00BF00ED00E095
:103B0000FCEC00E0002808DB044A4109012300F036
:103B10001F0003FA00F042F82100704700E100E0C6
:103B200000280DDB430907490122203300F01F0064
:103B300002FA00F041F82300BFF34F8FBFF36F8FFD
:103B4000704700BF00E100E0BFF34F8F0549064B0F
:103B5000CA6802F4E0621343CB60BFF34F8F00BF2B
:103B6000FDE700BF00ED00E00400FA050138B0F108
:103B7000807F10D210B44FF0E023084C58614FF012
:103B8000F00C84F823C00022072110469A615DF8EA
:103B9000044B196170470120704700BF00ED00E041
:103BA000BFF35F8F044B5A6A002122F480325A62BD
:103BB000C3F89410704700BF00ED00E0064B40F0E2
:103BC0000100C3F894005A6A42F480325A62BFF38B
:103BD0004F8FBFF36F8F704700ED00E017494378B8
:103BE000C1F89830027822B3436800B5C1F89C3020
:103BF000C37A90F80CC090F80FE01B0643EA0C73F0
:103C000090F80AC0134343EACC4390F80DC0827B7E
:103C100043EA8C4343EA424390F809C0027A43EAFC
:103C20000E4343EA0C2343EA4203C1F8A0305DF897
:103C300004FBC1F89C20C1F8A020704700ED00E013
:103C400040BF20BF704700BF024BD868C0F30220BE
:103C5000704700BF00ED00E0002810B427DB00F142
:103C6000604000F5614090F80003000901F0070191
:103C7000C1F1070CBCF1040F01F1040428BF4FF09F
:103C8000040C062C11D903394FF0FF348C4020EA84
:103C90000404C8404FF0FF3101FA0CF120EA0100A2
:103CA00010601C605DF8044B70470024F2E7034C81
:103CB00000F00F000444207E0009D7E7FCEC00E090
:103CC000002809DB4309054900F01F0001224033A9
:103CD00002FA00F041F82300704700BF00E100E065
:103CE00000280BDB4309064A403300F01F0052F85E
:103CF000233023FA00F000F00100704700207047E5
:103D000000E100E0002809DB4309054900F01F003D
:103D10000122603302FA00F041F82300704700BF2F
:103D200000E100E000280BDB4309064A803300F085
:103D30001F0052F8233023FA00F000F00100704712
:103D40000020704700E100E04FF0E02204281369F2
:103D50000CBF43F0040323F004031361704700BF5A
:103D6000704700BF08B5FFF7FBFF08BD704700BFF5
:103D7000704700BF10B50B4B0B490C4A1962002469
:103D80001C620B485A6280214FF0FF325C6218615E
:103D90001C6159615C619A619C61FFF7E9FF2046F3
:103DA00010BD00BF003802400FC8E2103179170083
:103DB0009F10600038B50E4A0E4B12781B680546FE
:103DC0004FF47A70B0FBF2F0B3FBF0F0FFF7CEFEE9
:103DD00008B90F2D01D9012038BD044602462946F5
:103DE0004FF0FF30FFF750FE034B20461D6038BDFB
:103DF00008000020040000200C00002008B50B4B38
:103E00001A6842F400721A601A6842F480621A60FA
:103E10001A6842F480721A600320FFF723FE0F2015
:103E2000FFF7C8FFFDF728FB002008BD003C02405B
:103E3000034A044B11681B780B441360704700BFA2
:103E4000DC02002008000020014B1868704700BF0A
:103E5000DC020020014B1868704700BF0C000020F6
:103E600038B5074C2578854201D1002038BD054B77
:103E700020701868FFF79EFF0028F7D0257038BD26
:103E8000080000200C000020014B1878704700BF8C
:103E90000800002038B50446FFF7D6FF631C05462E
:103EA00002D0044B1B781C44FFF7CEFF431BA342F8
:103EB000FAD338BD080000204FF0E022136923F048
:103EC00002031361704700BF4FF0E022136943F013
:103ED00002031361704700BF0048704700020801E9
:103EE000014B1868000C7047002004E0024B186872
:103EF000C0F30B00704700BF002004E0024A536883
:103F000043F0010353607047002004E0024A536805
:103F100023F0010353607047002004E0024A536815
:103F200043F0020353607047002004E0024A5368E4
:103F300023F0020353607047002004E0024A5368F4
:103F400043F0040353607047002004E0024A5368C2
:103F500023F0040353607047002004E0024B012269
:103F6000C3F80024704700BF00002742024B002224
:103F7000C3F80024704700BF00002742014BD3F86C
:103F8000100A70470070FF1F014BD3F8140A7047E6
:103F90000070FF1F014BD3F8180A70470070FF1F15
:103FA000002841D000293FD00B6830B44FF0010CFD
:103FB00003F01F02036098010CFA02FC19D5254D8D
:103FC0008868AC6810F0010F14BF44EA0C0424EABE
:103FD0000C04AC601F4C10F0020FE06814BF40EA04
:103FE0000C0020EA0C00E06003F0C060B0F1C06F8C
:103FF0001CD0184A48681368C1074CBF43EA0C0339
:1040000023EA0C0310F002001360124A05D1536832
:1040100023EA0C0330BC53607047536843EA0C0337
:10402000002030BC536070470120704702F01C0232
:1040300002F1804202F59C32C868946803F00303E1
:104040009B000F25984005FA03F324EA0303184365
:104050009060CEE7003C0140002831D000292FD0ED
:1040600030B4056820480D60046805F01F0C01237A
:1040700003FA0CF31C4214BF012200224A6040687C
:1040800018421CBF42F002024A600022C1E902222B
:10409000AA0112D5144A92681A421CBF01228A60F2
:1040A000114AD2681A4203D08B6843F002038B6036
:1040B00005F0C063B3F1C06F04D0002030BC70477E
:1040C000012070474FEA9C020848023205F00303C2
:1040D00050F822209B0022FA03F303F00F03002084
:1040E00030BCCB60704700BF003C0140003801404D
:1040F000002833D001681A4A01F01F0C1068012310
:1041000003FA0CF320EA03001060506820EA030071
:10411000506088016FEA03030AD5906818409060E8
:10412000D068034001F0C060B0F1C06FD36001D02F
:10413000002070470CF01C0C0CF1804C0CF59C3CE2
:1041400001F00301DCF808300F22890002FA01F1C6
:1041500023EA0101CCF808100020704701207047C5
:10416000003C014011B94260084670470120704789
:1041700010B10160002070470120704703680949B1
:1041800003F01F0210B401234C6993401C4205D078
:1041900042684B6112B15DF8044B10475DF8044B67
:1041A000704700BF003C0140054B00685A6900F0B1
:1041B0001F0001238340134023FA00F0704700BF23
:1041C000003C014002680349012302F01F029340B2
:1041D0004B617047003C014002680349012302F033
:1041E0001F0293400B617047003C014008B5074B2C
:1041F000044613B10021AFF30080054B1868836AB1
:1042000003B19847204603F051FA00BF00000000B8
:104210003877000870B50D4D0D4C641BA4100026B6
:10422000A64209D10B4D0C4C03F044FA641BA410B8
:104230000026A64205D170BD55F8043B98470136CB
:10424000EEE755F8043B98470136F2E78C7B00080F
:104250008C7B00088C7B0008907B0008024403469E
:10426000934200D1704703F8011BF9E72DE9FF479E
:1042700055EC104B002D0E4619462B46BBBF05F1E1
:1042800000431D4600232D230B700D9BDDF830A04D
:10429000914623F02008BCBF22461446B8F1460FD1
:1042A00005D0B8F1450F00D10136022100E003210D
:1042B00003AB019302AB009345EC104B53463246DF
:1042C00000F0CAFCB8F1470F074602D119F0010F00
:1042D00022D0B8F1460F07EB060910D13B78302BFE
:1042E0000AD10022002320462946FCF771FD18B9A7
:1042F000C6F10106CAF80060DAF8003099440022DD
:10430000002320462946FCF763FD08B1CDF80C9048
:104310003022039B4B4507D3039B0E9ADB1B384689
:10432000136004B0BDE8F087591C03911A70F0E7E0
:10433000F7B503460029B8BF494203F8022BB4BFC2
:104340002D222B22092942702ADD0DF10704A446F3
:104350000A27A6460A4691FBF7F607FB16153035E5
:10436000632A04F1FF340EF8015C3146F1DC303190
:10437000AEF1020504F8011C441C294661450AD32C
:104380000DF10902A2EB0E02654588BF002213441D
:10439000181A03B0F0BD11F8012B04F8012FEDE756
:1043A000302330318370C170031DF1E72DE9F04FE8
:1043B0002DED028B8DB00C46DDF8608016461F4651
:1043C000054601F039FAD0F800A05046FBF750FF3F
:1043D00000230A9323680593D8F8003094F818B0A6
:1043E000073323F0070303F10802C8F80020D3E9DC
:1043F0000023C4E91223D4E9128929F0004307936A
:10440000CDF8188008EE100A9F4BDDE906014FF049
:10441000FF32FCF70FFD88BBDDE906019A4B4FF038
:10442000FF32FCF7E9FC48BB002200234046494626
:10443000FCF7D8FC10B12D2384F84330934B9448FB
:10444000BBF1470F94BF9846804603232361059B29
:1044500023F0040222604FF00009009733460BAAB4
:104460002146284600F0D8F9013040F090804FF006
:10447000FF300DB0BDEC028BBDE8F08F42464B46DD
:1044800040464946FCF7D6FC40B14B46002BBCBF2A
:104490002D2384F843307F487F4BD1E763680BF0CE
:1044A000DF0206925A1C3FD106236360059B6168B8
:1044B00043F48062002303930AABCDE901B309AB57
:1044C00049EC108B009322600DF123032846FFF77F
:1044D000CDFE069B0999472B804608D1C81C02DBFC
:1044E0006368994241DDABF1020B5FFA8BFBBBF1D4
:1044F000650F20D801395A4604F150000991FFF7A1
:1045000017FF0A9A1318012A8146236102DC2268E8
:10451000D20701D5013323619DF82330002B9CD0B5
:104520002D2384F8433098E7069A472ABED1002B02
:10453000BCD10123B9E7BBF1660F18D1002963682C
:104540000BDD216113B92268D00702D501330B447A
:104550002361A1654FF00009DEE713B92268D20795
:1045600001D50233F4E70123F2E74FF0670B0A9B12
:10457000994205DB23682161D807EAD54B1CE7E7A0
:104580000029D4BFC1F1020201221344E0E72368ED
:104590005A0507D42369424631462846B8470130B8
:1045A0002CD164E7BBF1650F40F2E080D4E9120141
:1045B00000220023FCF70CFC002834D0374A0123EA
:1045C00031462846B84701303FF451AFDDE90923B1
:1045D0009A4202DB2368D80710D518EE103A5246EB
:1045E00031462846B84701303FF441AF4FF000084C
:1045F00004F11A090A9B013B434509DC23689B0728
:1046000000F10581E0680B9B9842B8BF184630E77F
:1046100001234A4631462846B84701303FF427AFC8
:1046200008F10108E6E7099B002B39DC1B4A01234E
:1046300031462846B84701303FF419AFDDE9092378
:10464000134302D12368D907D8D518EE103A524641
:1046500031462846B84701303FF409AF4FF0000912
:1046600004F11A0A099B5B424B4501DC0A9B92E765
:104670000123524631462846B84701303FF4F7AE91
:1046800009F10109EEE700BFFFFFEF7F3C7700086B
:104690004077000848770008447700084C77000806
:1046A0000A9AA36D9A42A8BF1A46002A914637DC9F
:1046B0004FF0000B29EAE97904F11A02A36D059382
:1046C000A3EB09035B4533DCDDE909239A423BDBBD
:1046D0002368DA0738D40A9B059A09999A1AA3EB3A
:1046E00001099145A8BF9146B9F1000F35DC4FF0A3
:1046F000000829EAE97904F11A0ADDE909239B1A7D
:10470000A3EB090343457FF779AF012352463146B6
:104710002846B84701303FF4AAAE08F10108ECE79B
:104720001346314642462846B8470130C0D19EE67E
:104730000123314628460592B84701303FF497AE31
:10474000059A0BF1010BB9E718EE103A52463146C3
:104750002846B8470130BED189E6059A4B46424407
:1047600031462846B8470130C1D180E60A9A012A6D
:1047700001DCDB0738D50123424631462846B847DD
:1047800001303FF474AE18EE103A524631462846D6
:10479000B84701303FF46BAED4E912010022002388
:1047A000FCF716FBD8B90A9B08F10102013B314620
:1047B0002846B84701300ED159E60123524631460A
:1047C0002846B84701303FF452AE08F101080A9B71
:1047D000013B4345F1DC4B4604F15002DCE64FF06F
:1047E000000804F11A0AF2E701234246DFE7012339
:1047F0004A4631462846B84701303FF438AE08F102
:104800000108E3680B995B1A4345F0DCFAE64FF0C8
:10481000000804F11909F4E72DE9F0471646994616
:104820008A680B69DDF820809342B8BF1346336075
:1048300091F8432007460C460AB1013333602368E0
:10484000990642BF336802333360256815F00605C8
:1048500006D104F1190AE36832689B1AAB4226DCE0
:1048600094F84320131E226818BF012392062BD40C
:1048700004F1430249463846C04701301ED0236840
:10488000E568326803F00603042B08BFAD1AA3687D
:1048900022690CBF25EAE57500259342C4BF9B1A27
:1048A000ED1800261A34B5421AD1002008E0012381
:1048B000524649463846C047013003D14FF0FF30D9
:1048C000BDE8F0870135C6E7E1185A1C302081F8B1
:1048D0004300224494F8451082F843100233C7E79E
:1048E0000123224649463846C0470130E6D001360A
:1048F000D9E700002DE9FF470F7E0C9D782F9146E8
:1049000080460C469A4601F1430207D8622F0AD826
:10491000002F00F0D880582F00F0A38004F142054A
:1049200084F842703AE0A7F16303152BF6D801A191
:1049300051F823F08D490008A14900081D490008DD
:104940001D4900081D4900081D490008A14900082B
:104950001D4900081D4900081D4900081D4900089F
:10496000AD4A0008D14900088F4A00081D490008D7
:104970001D490008CF4A00081D490008D149000818
:104980001D4900081D490008974A00082B681A1D98
:104990001B682A6004F1420584F842300123A3E039
:1049A00020682968060601F104030AD50E682B6009
:1049B000002E03DA2D23764284F843305E480A2322
:1049C00019E00E682B6010F0400F18BF36B2EFE709
:1049D0002B682068191D2960010601D51E6802E0B8
:1049E0004606FBD51E8854486F2F0CBF08230A23A8
:1049F000002184F843106568A560002DA2BF2168DE
:104A000021F0040121600EB9002D4DD01546B6FBF2
:104A1000F3F103FB1167C75D05F8017D3746BB4223
:104A20000E46F4D9082B0BD12368DE0708D523697D
:104A300061689942DEBF302305F8013C05F1FF357E
:104A4000521B2261CDF800A04B4603AA21464046E6
:104A5000FFF7E2FE01304CD14FF0FF3004B0BDE86B
:104A6000F087354881F845702968236851F8046B50
:104A700029601D0614D5DF0744BF43F020032360DF
:104A80001EB9236823F0200323601023B0E72368B6
:104A900043F0200323607823284884F84530E3E777
:104AA000590648BFB6B2E6E71546BBE72B6826684D
:104AB0006169181D286035061B6801D5196002E080
:104AC0007006FBD51980002323611546BAE72B68D1
:104AD0001A1D2A601D68626800212846FBF7D0FB7A
:104AE00008B1401B606063682361002384F8433091
:104AF000A8E723692A4649464046D0470130ABD053
:104B000023689B0713D4E068039B9842B8BF1846FC
:104B1000A4E70123324649464046D04701309BD0A6
:104B20000135E36803995B1AAB42F2DCEBE7002541
:104B300004F11906F5E700BF4E7700085F7700081B
:104B40002DE9F74F03690C69A3420746C0F2818043
:104B5000013C01F1140800F1140505EB84030193F5
:104B600058F8243055F8242001339A424FEA840B38
:104B700008EB8409B2FBF3F631D34FF0000E404648
:104B8000AC46F24650F8042B93B206FB03E34FEA1F
:104B9000134E9BB2AAEB0303DCF800A0120C13FA2D
:104BA0008AF306FB02E20093009B4FEA124E92B298
:104BB000C2EB1A4202EB2342BDF80030814543EAC2
:104BC00002434CF8043B4FEA224ADBD255F80B3043
:104BD0002BB9019B043B9D421A462ED33C613846BB
:104BE00001F01CF9002824DB013628464FF0000CA8
:104BF00058F8042BD0F800E093B2ACEB0303120C8E
:104C000013FA8EF3C2EB1E4202EB23429BB243EA3D
:104C10000243C14540F8043B4FEA224CE8D255F824
:104C2000242005EB840322B9043B9D421A460AD393
:104C30003C61304603B0BDE8F08F1268043B002AA7
:104C4000CCD1013CC7E71268043B002AF0D1013CFB
:104C5000EBE70020EEE700002DE9F04F2DED048B8F
:104C600057EC106B93B0456ADDF88080069110EE2A
:104C700010AA044609920C93BB4675B9102000F0A7
:104C8000E3FD0246606220B9A74BEA21A74801F084
:104C9000DFFBC0E901550560C560636A196851B161
:104CA0005A684A60012393408B60204600F02AFE38
:104CB000636A00221A603B1EAABF002323F0004B48
:104CC000C8F800309A4BBCBF0122C8F8002033EA74
:104CD0000B031BD10C9A42F20F731360CBF3130337
:104CE000334300F09285219B63B9924B22E0924BB3
:104CF00001930833219A1360019813B0BDEC048B23
:104D0000BDE8F08F8B4B01930333F3E700220023C0
:104D100050465946FCF75CF84BEC19AB804658B14D
:104D20000C9A01231360219B002B00F06B858348B4
:104D30001860431E0193DFE74BEC10AB10AA11A9DA
:104D4000204601F08DF9CBF30A5508EE100A002D2C
:104D500000F0848019EE903AC3F3130343F07F57B9
:104D6000564647F44017A5F2FF35CDF83880744B0E
:104D7000002230463946FBF70BFC65A3D3E900233C
:104D8000FBF7BEFD64A3D3E90023FBF703FC064653
:104D900028460F46FBF74AFD61A3D3E90023FBF742
:104DA000AFFD02460B4630463946FBF7F3FB06469D
:104DB0000F46FCF755F80022009000233046394694
:104DC000FCF710F850B10098FBF730FD32463B4637
:104DD000FBF7FEFF10B9009B013B0093009B162BD5
:104DE0005AD8009A574B03EBC203D3E9002351EC86
:104DF000190BFBF7F7FF002850D0009B013B0093F5
:104E000000230B93109B5D1B6B1E059345BFC5F1E3
:104E100001030493002300234CBF05930493009BDC
:104E2000002B3DDB059B009A0A9213440593002357
:104E30000793069B092B00F28980052BC4BF043B16
:104E40000693069BA3F10203CCBF00250125032B8B
:104E500000F28780DFE803F02D3A3859DDE910537E
:104E60001D4405F23243202BC1BFC3F1400305F2BC
:104E700012400BFA03F326FA00F0DABFC3F1200365
:104E800006FA03F01843FBF7C1FC01230646A1F123
:104E9000F877013D0E936AE70123B2E70B90B1E783
:104EA000049B009A9B1A04935342079300230A938E
:104EB000BFE700230893099B002B55DC0123CDE9B4
:104EC00002331A4609920CE00123F3E70023099A02
:104ED0000893009B134402930133012B0393B8BF43
:104EE0000123606A00224260042202F114069E42FD
:104EF00041683DD9204600F0C5FC019000283BD117
:104F0000114B02464FF4D571C0E60123DFE700BF25
:104F100061436F63A787D23FB3C8608B288AC63FBF
:104F2000FB799F501344D33F7D77000894770008A6
:104F30000000F07F79770008707700084D7700084F
:104F40000000F83FD07800081278000801250023FF
:104F5000069308954FF0FF33CDE902330022122368
:104F6000B0E701230893F5E7099BCDE90233B8E7E1
:104F7000013141605200B8E7636A019A1A60039BED
:104F80000E2B00F29D80002D00F09A80009B002BDC
:104F900032DDB74A03F00F0302EBC303D3E9008904
:104FA000009BD8054FEA231716D5B24B51EC190BCD
:104FB000D3E90823FBF7CEFD07F00F0782468B46A7
:104FC0000325AC4E57B942464B4650465946FBF76F
:104FD000C1FD82468B4628E00225F2E7F90708D595
:104FE00040464946D6E90023FBF78AFC0135804656
:104FF00089467F100836E5E700F09B80009B9D4FB7
:105000005E429B4B06F00F0203EBC203D3E9002381
:1050100051EC190BFBF774FC361182468B460023CA
:105020000225002E7AD1002BD3D10B9B002B00F050
:105030008280914B002250465946FBF7D3FE002850
:1050400079D0039B002B76D0029B002B36DD009B92
:10505000504659465F1E0022884BFBF751FC029ECA
:1050600082468B4601352846FBF7E0FB52465B46FD
:10507000FBF746FC824B0022FBF78CFAD046D94660
:105080008246A1F1507B002E58D17E4B0022404633
:105090004946FBF77DFA52465B4680468946FBF758
:1050A000BFFE002840F0958252460BF10043404677
:1050B0004946FBF797FE002840F089825BEC19AB6C
:1050C000119B002BC0F24881009A0E2A00F3448104
:1050D000674B03EBC203D3E90089099B002B80F2E5
:1050E000D580039B002B00F3D18040F06F82654B8D
:1050F000002240464946FBF703FC52465B46FBF75D
:1051000085FE039E3746002840F04582019D3123ED
:1051100005F8013B009B0133009340E2F20705D5FF
:10512000D7E90023FBF7ECFB0135012376100837A4
:1051300077E7022579E7009F039E94E701994C4B9E
:1051400031440D91089903EBC60353E9022300296A
:1051500043D04D490020FBF7FDFC52465B46FBF770
:1051600017FA019D82468B4649464046FBF778FE7A
:105170000646FBF75BFB02460B4640464946FBF7FB
:1051800007FA303605F8016B52465B468046894681
:10519000FBF728FE002863D142464B4636490020E3
:1051A000FBF7F6F952465B46FBF71CFE002840F081
:1051B000B5800D9B9D4281D0304B00225046594610
:1051C000FBF79EFB2D4B82468B464046494600220C
:1051D000FBF796FB80468946C6E750465946FBF7E3
:1051E0008FFB0D9B019D0F9382468B46494640469F
:1051F000FBF736FE0646FBF719FB303602460B4638
:1052000040464946FBF7C4F905F8016B0D9B9D42EA
:10521000804689464FF0000224D11B4B5046594628
:10522000FBF7B8F902460B4640464946FBF7F8FD46
:10523000002873D152465B4613490020FBF7A8F9BA
:1052400002460B4640464946FBF7CCFD00283FF49A
:1052500035AF0F9D6B1E0F9315F8013C302BF8D026
:10526000009749E0054BFBF74BFB80468946BDE7BD
:10527000D0780008A87800080000F03F0000244023
:1052800000001C40000014400000E03F019D564615
:105290005F4642464B4630463946FBF75BFCFBF720
:1052A000DFFD8246FBF7C2FA42464B46FBF728FB7E
:1052B00002460B46304639460AF13006FBF768F9DC
:1052C00005F8016B019E039FAE1BB74202460B46D9
:1052D00035D1FBF75FF942464B4606460F46FBF7D2
:1052E0009FFDD0B942464B4630463946FBF770FD2C
:1052F00010B11AF0010F10D1204618EE101A00F06C
:1053000001FB002300982B700C9B01301860219B3F
:10531000002B3FF4F1AC1D60EEE4009F2B461D46D0
:1053200013F8012D392A06D1019A9A42F7D1019931
:10533000302201370A701A7801321A7090E7A64BB2
:105340000022FBF7DDFA0022002306460F46FBF79A
:105350003FFD00289DD0CFE7089A002A00F0D780B3
:10536000069A012A00F3BA800E9A002A00F0B28051
:1053700003F23343079E049D049A1A440492059A4B
:1053800001211A442046059200F0BEFB0746002D7D
:105390000CDD059B002B09DDAB42049AA8BF2B4610
:1053A000D21A0492059AED1AD31A0593079B1BB3E0
:1053B000089B002B00F0AF80002E13DD39463246EB
:1053C000204600F061FC18EE102A014607462046F0
:1053D00000F0B0FB18EE101A8046204600F092FA5A
:1053E00008EE108A079B9A1B06D018EE101A20466A
:1053F00000F04AFC08EE100A0121204600F084FB70
:105400000A9B002B064640F388801A460146204638
:1054100000F03AFC069B012B064640F381804FF0DA
:105420000008336906EB8303186900F01DFBC0F127
:105430002000059B184410F01F0000F09280C0F17E
:105440002003042B40F38A80C0F11C00049B03441A
:105450000493059B034405440593049B002B07DD3F
:1054600018EE101A1A46204600F068FC08EE100AE2
:10547000059B002B05DD31461A46204600F05EFCF8
:1054800006460B9B002B6ED018EE100A314600F03A
:10549000C5FC002867DA009B013B18EE101A009348
:1054A0000A220023204600F04FFA089B08EE100A5B
:1054B000002B00F0B181002339460A22204600F07B
:1054C00043FA029B002B074600F38E80069B022BBB
:1054D00051DC89E0109BC3F136034BE7039B5E1E52
:1054E000079BB342BFBF079B0796F21A0A9BB6BF42
:1054F0009B189E1B0A93039BB8BF0026002BB7BFC7
:10550000DDE90323DDE903359D1A002334E7079E17
:10551000049D089F3BE7079A67E7069B012B18DC71
:10552000BAF1000F15D1CBF3130393B92BF000435D
:105530001B0D1B0583B1049B01330493059B0133B1
:1055400005934FF001080A9B002B7FF46AAF0120FE
:105550006FE74FF00008F6E79846F4E73FF47DAFB9
:1055600018461C3072E7039B002B37DC069B022B8E
:1055700034DD039B0293029B6BB931460522204622
:1055800000F0E2F90146064618EE100A00F046FC6B
:1055900000283FF7BBAD099B019DDB4300934FF013
:1055A00000083146204600F0ADF9002F3FF4A4AECC
:1055B000B8F1000F05D0B84503D04146204600F0B1
:1055C000A1F93946204600F09DF995E600263746B8
:1055D000E1E70097374699E500002440089B002B3F
:1055E00000F0CA80039B0293002D05DD39462A4650
:1055F000204600F0A3FB0746B8F1000F5BD07968A6
:10560000204600F03FF9054628B9874B024640F294
:10561000EA21FFF73BBB3A690232920007F10C0125
:105620000C3000F021F901222946204600F086FBCB
:10563000019B03F10109DDE90123134405930AF0FD
:105640000103B84604930746314618EE100AFFF7E7
:1056500077FA4146029000F1300A18EE100A00F085
:10566000DDFB3A4603903146204600F0F3FBC2686A
:1056700009F1FF3B054602BB014618EE100A00F097
:10568000CDFB024629462046079200F03BF9DDE9B2
:10569000063243EA0201049B0B434D460FD1BAF197
:1056A000390F2AD0039B002B02DD029B03F1310A44
:1056B0008BF800A075E73846BAE70122E2E7039BC2
:1056C000002B04DB06990B4304990B4322D1002ADB
:1056D000EEDD18EE101A0122204600F02FFB3146B5
:1056E00008EE100A00F09AFB002803DCE0D11AF063
:1056F000010FDDD0BAF1390FD7D139238BF8003043
:105700002B461D46013B15F8012C392A71D0013278
:105710001A7046E7002A07DDBAF1390FEDD00AF119
:1057200001038BF800303CE7059B09F801AC994573
:1057300047D018EE101A00230A22204600F004F980
:10574000B84508EE100A4FF000034FF00A02414638
:10575000204606D100F0F8F88046074609F1010915
:1057600072E700F0F1F83946804600230A2220460D
:1057700000F0EAF80746F1E7039B0293019D18EE5B
:10578000100A3146FFF7DCF900F1300A019B05F8F9
:1057900001ABEA1A029B934209DD18EE101A0023AE
:1057A0000A22204600F0D0F808EE100AE7E7029B34
:1057B000002BC8BF1D46019BD8BF01251D444FF0DB
:1057C000000818EE101A0122204600F0B7FA314600
:1057D00008EE100A00F022FB002891DC02D11AF03A
:1057E000010F8DD12B461D4613F8012D302AFAD01A
:1057F000D7E6019A9A4284D1009B0133009331236A
:105800001370CEE6094BFFF795BA219B002B7FF46E
:105810006EAA074BFFF78EBA029B002BAEDC069BED
:10582000022B3FF7A8AEA9E7127800084C770008D2
:1058300070770008F030704700487047640100201E
:105840000048704764010020024B0146186800F0D0
:105850007BBD00BF10000020024B0146186800F01D
:1058600007BD00BF100000200A44914200F1FF3341
:1058700000D1704710B511F8014B03F8014F914268
:10588000F9D110BD70B5466A04460D4676B91020B0
:10589000FFF7DAFF0246606220B9184B184866210C
:1058A00000F0D6FDC0E901660660C660666AF3686E
:1058B00083B1636ADB6853F82500B8B9012101FAA6
:1058C00005F6721D9200204600F0BCFC60B1C0E9F4
:1058D00001560EE021220421204600F0B3FC636A49
:1058E000F060DB68002BE4D1002070BD026843F853
:1058F00025200023C0E90333F7E700BF7D770008C8
:105900002378000870B5466A05460C4676B9102023
:10591000FFF79AFF0246686220B9094B09488A21BD
:1059200000F096FDC0E901660660C6603CB16B6A96
:105930006268DB6853F82210216043F8224070BD92
:105940007D770008237800082DE9F0410D690746AE
:105950000C461E4601F1140C0020DCF8003099B210
:1059600002FB01611E0C0B0C02FB063389B20130F5
:1059700001EB034185424CF8041B4FEA1346ECDC73
:105980000EB3A368AB4219DC616838460131FFF7FA
:1059900079FF804628B902460C4B0D48B52100F02E
:1059A00057FD2269023204F10C0192000C30FFF71E
:1059B0005BFF21463846FFF7A5FF444604EB85030D
:1059C00001355E6125612046BDE8F081127800084E
:1059D000237800082DE9F8430C4615461F46092296
:1059E0000833064693FBF2F3002101229A4209DBB9
:1059F0003046FFF747FF40B90246194B1948CE2100
:105A000000F026FD52000131F0E7089B4361092DAB
:105A10004FF00103036116DD04F10909C8462C4467
:105A200018F8013B0146303B0A223046FFF78CFF55
:105A3000A045F5D1A5F108044C442D1B6319BB42C8
:105A400004DBBDE8F8830A340925F6E714F8013BC6
:105A50000146303B0A223046FFF776FFEEE700BFF3
:105A60001278000823780008030C1B04D3B9000443
:105A7000102310F07F4F04BF0002083310F0704F66
:105A800004BF0001043310F0404F04BF8000023314
:105A9000002805DB10F0804F03F1010308BF20232D
:105AA000184670470023E4E7036813F00702014635
:105AB0000BD0DA0723D4980749BF5B089B08012065
:105AC0000B605CBF0B600220704798B2A8B91B0C3A
:105AD0001020DAB20AB908301B0A1A0704BF1B09E2
